{
  "contractName": "Telephone",
  "abi": [
    {
      "inputs": [
        {
          "internalType": "uint256",
          "name": "_secret",
          "type": "uint256"
        }
      ],
      "payable": true,
      "stateMutability": "payable",
      "type": "constructor"
    },
    {
      "anonymous": false,
      "inputs": [
        {
          "indexed": false,
          "internalType": "uint256",
          "name": "_value",
          "type": "uint256"
        }
      ],
      "name": "returnEvent",
      "type": "event"
    },
    {
      "anonymous": false,
      "inputs": [
        {
          "indexed": false,
          "internalType": "uint256",
          "name": "_value",
          "type": "uint256"
        }
      ],
      "name": "secretSet",
      "type": "event"
    },
    {
      "constant": true,
      "inputs": [],
      "name": "secret",
      "outputs": [
        {
          "internalType": "uint256",
          "name": "",
          "type": "uint256"
        }
      ],
      "payable": false,
      "stateMutability": "view",
      "type": "function"
    },
    {
      "constant": true,
      "inputs": [],
      "name": "derivedSecret",
      "outputs": [
        {
          "internalType": "uint256",
          "name": "",
          "type": "uint256"
        }
      ],
      "payable": false,
      "stateMutability": "view",
      "type": "function"
    },
    {
      "constant": true,
      "inputs": [],
      "name": "getSecret",
      "outputs": [
        {
          "internalType": "uint256",
          "name": "",
          "type": "uint256"
        }
      ],
      "payable": false,
      "stateMutability": "view",
      "type": "function"
    },
    {
      "constant": false,
      "inputs": [
        {
          "internalType": "uint256",
          "name": "_value",
          "type": "uint256"
        }
      ],
      "name": "setSecret",
      "outputs": [],
      "payable": false,
      "stateMutability": "nonpayable",
      "type": "function"
    }
  ],
  "bytecode": "0x60806040526040516105343803806105348339818101604052602081101561002657600080fd5b8101908080519060200190929190505050610063604051806060016040528060228152602001610512602291398261007060201b6101db1760201c565b80600081905550506101a2565b61017982826040516024018080602001838152602001828103825284818151815260200191508051906020019080838360005b838110156100be5780820151818401526020810190506100a3565b50505050905090810190601f1680156100eb5780820380516001836020036101000a031916815260200191505b5093505050506040516020818303038152906040527fb60e72cc000000000000000000000000000000000000000000000000000000007bffffffffffffffffffffffffffffffffffffffffffffffffffffffff19166020820180517bffffffffffffffffffffffffffffffffffffffffffffffffffffffff838183161783525050505061017d60201b60201c565b5050565b60006a636f6e736f6c652e6c6f6790508151602083016000808383865afa5050505050565b610361806101b16000396000f3fe608060405234801561001057600080fd5b506004361061004c5760003560e01c80633b4dbf8b146100515780635b9fdc301461007f578063d1efd30d1461009d578063db138738146100bb575b600080fd5b61007d6004803603602081101561006757600080fd5b81019080803590602001909291905050506100d9565b005b610087610154565b6040518082815260200191505060405180910390f35b6100a561015d565b6040518082815260200191505060405180910390f35b6100c3610163565b6040518082815260200191505060405180910390f35b806000819055507f7b1789f3050b1a785a04ceffeaf2c1f69d1825f6d841b576609e32515fed508b816040518082815260200191505060405180910390a17fa55c39b167d895c6c502187973668d64d864976744fe4a2becbd0c77212c9e97600182016040518082815260200191505060405180910390a150565b60008054905090565b60005481565b60008060016000546064020190506101b26040518060400160405280601581526020017f54686520706173737068726173652069733a20256f00000000000000000000008152506000546101db565b6101d460405180606001604052806025815260200161030860259139826101db565b8091505090565b6102de82826040516024018080602001838152602001828103825284818151815260200191508051906020019080838360005b8381101561022957808201518184015260208101905061020e565b50505050905090810190601f1680156102565780820380516001836020036101000a031916815260200191505b5093505050506040516020818303038152906040527fb60e72cc000000000000000000000000000000000000000000000000000000007bffffffffffffffffffffffffffffffffffffffffffffffffffffffff19166020820180517bffffffffffffffffffffffffffffffffffffffffffffffffffffffff83818316178352505050506102e2565b5050565b60006a636f6e736f6c652e6c6f6790508151602083016000808383865afa505050505056fe4c65616b20697420612068756e647265642074696d65732c20706c7573206f6e653a20256fa265627a7a723158205ecfdd2bb02d5a0f0671da47009e2427db5906188725fedbe04618833b4d13db64736f6c6343000510003254656c6570686f6e653a3a636f6e7374727563746f720a097365637265743a20256f",
  "source": "// SPDX-License-Identifier: MIT\npragma solidity >=0.4.25 <0.9.0;\n\nimport \"truffle/console.sol\";\n\ncontract Telephone {\n    uint public secret;\n    event secretSet(uint _value);\n    event returnEvent(uint _value);\n\n    constructor(uint _secret) public payable { \n        console.log(\"Telephone::constructor\\n\\tsecret: %o\", _secret); \n        secret = _secret;\n    }\n\n    function derivedSecret() public view returns (uint256) {\n        uint256 telephoneSecret = 100 * secret + 1;\n        console.log(\"The passphrase is: %o\", secret);\n        console.log(\"Leak it a hundred times, plus one: %o\", telephoneSecret);\n        return telephoneSecret; \n    }\n\n    function getSecret() public view returns (uint) {\n        return secret;\n    }\n\n    function setSecret(uint _value) public {\n        secret = _value;\n        emit secretSet(_value);\n        emit returnEvent(_value+1);\n\n    }\n}\n",
  "sourcePath": "/Users/jinrirencai/Desktop/ico/Telephone/project/contracts/Telephone.sol",
  "compiler": {
    "name": "solc",
    "version": "0.5.16+commit.9c3226ce.Emscripten.clang"
  },
  "schemaVersion": "3.4.11",
  "updatedAt": "2023-02-24T08:44:41.086Z",
  "networkType": "ethereum",
  "devdoc": {
    "methods": {}
  },
  "userdoc": {
    "methods": {}
  }
}