{
  "contractName": "Telephone",
  "abi": [
    {
      "inputs": [
        {
          "internalType": "uint256",
          "name": "_secret",
          "type": "uint256"
        }
      ],
      "payable": true,
      "stateMutability": "payable",
      "type": "constructor"
    },
    {
      "constant": true,
      "inputs": [],
      "name": "secret",
      "outputs": [
        {
          "internalType": "uint256",
          "name": "",
          "type": "uint256"
        }
      ],
      "payable": false,
      "stateMutability": "view",
      "type": "function"
    },
    {
      "constant": true,
      "inputs": [],
      "name": "derivedSecret",
      "outputs": [
        {
          "internalType": "uint256",
          "name": "",
          "type": "uint256"
        }
      ],
      "payable": false,
      "stateMutability": "view",
      "type": "function"
    }
  ],
  "bytecode": "0x608060405260405161044e38038061044e8339818101604052602081101561002657600080fd5b810190808051906020019092919050505061006360405180606001604052806022815260200161042c602291398261007060201b6100f51760201c565b80600081905550506101a2565b61017982826040516024018080602001838152602001828103825284818151815260200191508051906020019080838360005b838110156100be5780820151818401526020810190506100a3565b50505050905090810190601f1680156100eb5780820380516001836020036101000a031916815260200191505b5093505050506040516020818303038152906040527fb60e72cc000000000000000000000000000000000000000000000000000000007bffffffffffffffffffffffffffffffffffffffffffffffffffffffff19166020820180517bffffffffffffffffffffffffffffffffffffffffffffffffffffffff838183161783525050505061017d60201b60201c565b5050565b60006a636f6e736f6c652e6c6f6790508151602083016000808383865afa5050505050565b61027b806101b16000396000f3fe608060405234801561001057600080fd5b50600436106100365760003560e01c8063d1efd30d1461003b578063db13873814610059575b600080fd5b610043610077565b6040518082815260200191505060405180910390f35b61006161007d565b6040518082815260200191505060405180910390f35b60005481565b60008060016000546064020190506100cc6040518060400160405280601581526020017f54686520706173737068726173652069733a20256f00000000000000000000008152506000546100f5565b6100ee60405180606001604052806025815260200161022260259139826100f5565b8091505090565b6101f882826040516024018080602001838152602001828103825284818151815260200191508051906020019080838360005b83811015610143578082015181840152602081019050610128565b50505050905090810190601f1680156101705780820380516001836020036101000a031916815260200191505b5093505050506040516020818303038152906040527fb60e72cc000000000000000000000000000000000000000000000000000000007bffffffffffffffffffffffffffffffffffffffffffffffffffffffff19166020820180517bffffffffffffffffffffffffffffffffffffffffffffffffffffffff83818316178352505050506101fc565b5050565b60006a636f6e736f6c652e6c6f6790508151602083016000808383865afa505050505056fe4c65616b20697420612068756e647265642074696d65732c20706c7573206f6e653a20256fa265627a7a7231582048f0e79ba5fddf2d96f39c21f546c7a9c7c190bcce7784b8a5904fa71bd7494164736f6c6343000510003254656c6570686f6e653a3a636f6e7374727563746f720a097365637265743a20256f",
  "source": "// SPDX-License-Identifier: MIT\npragma solidity >=0.4.25 <0.9.0;\n\nimport \"truffle/console.sol\";\n\ncontract Telephone {\n    uint public secret;\n\n    constructor(uint _secret) public payable { \n        console.log(\"Telephone::constructor\\n\\tsecret: %o\", _secret); \n        secret = _secret;\n    }\n\n    function derivedSecret() public view returns (uint256) {\n        uint256 telephoneSecret = 100 * secret + 1;\n        console.log(\"The passphrase is: %o\", secret);\n        console.log(\"Leak it a hundred times, plus one: %o\", telephoneSecret);\n        return telephoneSecret; \n    }\n}\n",
  "sourcePath": "/Users/jinrirencai/Desktop/ico/Temp/project/contracts/Telephone.sol",
  "compiler": {
    "name": "solc",
    "version": "0.5.16+commit.9c3226ce.Emscripten.clang"
  },
  "schemaVersion": "3.4.11",
  "updatedAt": "2023-02-23T09:44:05.765Z",
  "networkType": "ethereum",
  "devdoc": {
    "methods": {}
  },
  "userdoc": {
    "methods": {}
  }
}